{
  "_format": "hh-sol-artifact-1",
  "contractName": "Mapping_mmcs",
  "sourceName": "contracts/mappingSample.sol",
  "abi": [
    {
      "inputs": [
        {
          "internalType": "address",
          "name": "_addr",
          "type": "address"
        }
      ],
      "name": "get",
      "outputs": [
        {
          "internalType": "uint256",
          "name": "",
          "type": "uint256"
        }
      ],
      "stateMutability": "view",
      "type": "function"
    },
    {
      "inputs": [
        {
          "internalType": "address",
          "name": "",
          "type": "address"
        }
      ],
      "name": "myMap",
      "outputs": [
        {
          "internalType": "uint256",
          "name": "",
          "type": "uint256"
        }
      ],
      "stateMutability": "view",
      "type": "function"
    },
    {
      "inputs": [
        {
          "internalType": "address",
          "name": "_addr",
          "type": "address"
        }
      ],
      "name": "remove",
      "outputs": [],
      "stateMutability": "nonpayable",
      "type": "function"
    },
    {
      "inputs": [
        {
          "internalType": "address",
          "name": "_addr",
          "type": "address"
        },
        {
          "internalType": "uint256",
          "name": "_i",
          "type": "uint256"
        }
      ],
      "name": "set",
      "outputs": [],
      "stateMutability": "nonpayable",
      "type": "function"
    }
  ],
  "bytecode": "0x608060405234801561001057600080fd5b5061033b806100206000396000f3fe608060405234801561001057600080fd5b506004361061004c5760003560e01c806327cbd5291461005157806329092d0e146100815780633825d8281461009d578063c2bc2efc146100b9575b600080fd5b61006b60048036038101906100669190610238565b6100e9565b604051610078919061027e565b60405180910390f35b61009b60048036038101906100969190610238565b610101565b005b6100b760048036038101906100b291906102c5565b610146565b005b6100d360048036038101906100ce9190610238565b61018d565b6040516100e0919061027e565b60405180910390f35b60006020528060005260406000206000915090505481565b6000808273ffffffffffffffffffffffffffffffffffffffff1673ffffffffffffffffffffffffffffffffffffffff1681526020019081526020016000206000905550565b806000808473ffffffffffffffffffffffffffffffffffffffff1673ffffffffffffffffffffffffffffffffffffffff168152602001908152602001600020819055505050565b60008060008373ffffffffffffffffffffffffffffffffffffffff1673ffffffffffffffffffffffffffffffffffffffff168152602001908152602001600020549050919050565b600080fd5b600073ffffffffffffffffffffffffffffffffffffffff82169050919050565b6000610205826101da565b9050919050565b610215816101fa565b811461022057600080fd5b50565b6000813590506102328161020c565b92915050565b60006020828403121561024e5761024d6101d5565b5b600061025c84828501610223565b91505092915050565b6000819050919050565b61027881610265565b82525050565b6000602082019050610293600083018461026f565b92915050565b6102a281610265565b81146102ad57600080fd5b50565b6000813590506102bf81610299565b92915050565b600080604083850312156102dc576102db6101d5565b5b60006102ea85828601610223565b92505060206102fb858286016102b0565b915050925092905056fea2646970667358221220e010e274d45cb37f25bfcf1dcbffc8fcd3d141a953ddda69ad0cdb8b1d627a3c64736f6c634300080a0033",
  "linkReferences": {},
  "deployedLinkReferences": {}
}