{
  "_format": "hh-sol-artifact-1",
  "contractName": "NestedMapping",
  "sourceName": "contracts/mappingSample.sol",
  "abi": [
    {
      "inputs": [
        {
          "internalType": "address",
          "name": "_addr1",
          "type": "address"
        },
        {
          "internalType": "uint256",
          "name": "_i",
          "type": "uint256"
        }
      ],
      "name": "get",
      "outputs": [
        {
          "internalType": "bool",
          "name": "",
          "type": "bool"
        }
      ],
      "stateMutability": "view",
      "type": "function"
    },
    {
      "inputs": [
        {
          "internalType": "address",
          "name": "",
          "type": "address"
        },
        {
          "internalType": "uint256",
          "name": "",
          "type": "uint256"
        }
      ],
      "name": "nested",
      "outputs": [
        {
          "internalType": "bool",
          "name": "",
          "type": "bool"
        }
      ],
      "stateMutability": "view",
      "type": "function"
    },
    {
      "inputs": [
        {
          "internalType": "address",
          "name": "_addr1",
          "type": "address"
        },
        {
          "internalType": "uint256",
          "name": "_i",
          "type": "uint256"
        }
      ],
      "name": "remove",
      "outputs": [],
      "stateMutability": "nonpayable",
      "type": "function"
    },
    {
      "inputs": [
        {
          "internalType": "address",
          "name": "_addr1",
          "type": "address"
        },
        {
          "internalType": "uint256",
          "name": "_i",
          "type": "uint256"
        },
        {
          "internalType": "bool",
          "name": "_boo",
          "type": "bool"
        }
      ],
      "name": "set",
      "outputs": [],
      "stateMutability": "nonpayable",
      "type": "function"
    }
  ],
  "bytecode": "0x608060405234801561001057600080fd5b50610412806100206000396000f3fe608060405234801561001057600080fd5b506004361061004c5760003560e01c80630b1391941461005157806314bd0a7b1461006d578063abe7f1ab1461009d578063b464631b146100b9575b600080fd5b61006b6004803603810190610066919061031f565b6100e9565b005b61008760048036038101906100829190610372565b610155565b60405161009491906103c1565b60405180910390f35b6100b760048036038101906100b29190610372565b610184565b005b6100d360048036038101906100ce9190610372565b6101e7565b6040516100e091906103c1565b60405180910390f35b806000808573ffffffffffffffffffffffffffffffffffffffff1673ffffffffffffffffffffffffffffffffffffffff168152602001908152602001600020600084815260200190815260200160002060006101000a81548160ff021916908315150217905550505050565b60006020528160005260406000206020528060005260406000206000915091509054906101000a900460ff1681565b6000808373ffffffffffffffffffffffffffffffffffffffff1673ffffffffffffffffffffffffffffffffffffffff168152602001908152602001600020600082815260200190815260200160002060006101000a81549060ff02191690555050565b60008060008473ffffffffffffffffffffffffffffffffffffffff1673ffffffffffffffffffffffffffffffffffffffff168152602001908152602001600020600083815260200190815260200160002060009054906101000a900460ff16905092915050565b600080fd5b600073ffffffffffffffffffffffffffffffffffffffff82169050919050565b600061027e82610253565b9050919050565b61028e81610273565b811461029957600080fd5b50565b6000813590506102ab81610285565b92915050565b6000819050919050565b6102c4816102b1565b81146102cf57600080fd5b50565b6000813590506102e1816102bb565b92915050565b60008115159050919050565b6102fc816102e7565b811461030757600080fd5b50565b600081359050610319816102f3565b92915050565b6000806000606084860312156103385761033761024e565b5b60006103468682870161029c565b9350506020610357868287016102d2565b92505060406103688682870161030a565b9150509250925092565b600080604083850312156103895761038861024e565b5b60006103978582860161029c565b92505060206103a8858286016102d2565b9150509250929050565b6103bb816102e7565b82525050565b60006020820190506103d660008301846103b2565b9291505056fea2646970667358221220ef75793dc9a25a72aae5f57064932faca5b9ec55e6acf94c67b5416b9ebf9ec464736f6c634300080a0033",
  "linkReferences": {},
  "deployedLinkReferences": {}
}